:100000000C942A000C9447000C9447000C94470071
:100010000C9447000C9447000C9447000C94470044
:100020000C9447000C9447000C9447000C94490032
:100030000C9447000C9447000C9447000C94470024
:100040000C9447000C9447000C9447000C946B00F0
:100050000C94470011241FBECFE5D4E0DEBFCDBF16
:1000600010E0A0E6B0E0EAEDF1E002C005900D92EC
:10007000AC36B107D9F712E0ACE6B0E001C01D9292
:10008000A437B107E1F70E94C2000C94EB000C9476
:1000900000001F920F920FB60F9211242F938F938F
:1000A0009F93EF93FF9380916C0090916D002CB122
:1000B000FC01EC58FF4F2083019690936D008093D4
:1000C0006C00FF91EF919F918F912F910F900FBE38
:1000D0000F901F9018951F920F920FB60F92112438
:1000E0008F939F938091780090E099BD88BD809117
:1000F000790090E09BBD8ABD80917A0083BD9F917D
:100100008F910F900FBE0F901F9018958FEF8ABBA5
:10011000BA98C2988CE184BB80E185BB81B381BB76
:1001200080EB81BB82B382BB089581EA8FBD8CE0F6
:100130008EBD80EF90E09BBD8ABD99BD88BD8EE6E7
:1001400085BD80E283BD089583E883BF82E089BFD7
:100150000895882359F010BC83E389B980E98AB9EE
:1001600086E880BD88E085BBAA98089510BC81E030
:1001700089B980E98AB98EE880BD85B385BB80E8FE
:100180008BBB08950E9486000E94950080E00E942B
:10019000A90089E18BBB789440EA50E020E230E08E
:1001A0005C9B11C08CB1809374008091780090E0CA
:1001B00099BD88BD8091790090E09BBD8ABD8091FA
:1001C0007A0083BD05C059BD48BD3BBD2ABD13BCE7
:0A01D00085B38BBBE5CFF894FFCF99
:0C01DA00C0F9A4B0999282F88090330123
:00000001FF
