:100000000C942A000C9447000C9447000C94470071
:100010000C9447000C9447000C9447000C94470044
:100020000C9447000C9447000C9447000C94490032
:100030000C9447000C9447000C9447000C94470024
:100040000C9447000C9447000C9447000C94470014
:100050000C94470011241FBECFE5D4E0DEBFCDBF16
:1000600011E0A0E6B0E0E6E0F5E002C005900D92F8
:10007000AC36B107D9F713E0ACE6B1E001C01D9290
:10008000A537B107E1F70E94AB010C9481020C94F3
:1000900000001F920F920FB60F9211248F939F931F
:1000A000EF93FF93F894E0916F01F09170018CB1A0
:1000B000ED58FE4F808380916F0190917001019601
:1000C0009093700180936F019FEF909373029093D0
:1000D00074028DE980937502909376027894FF9173
:1000E000EF919F918F910F900FBE0F901F901895D9
:1000F0001ABA9FEF9BBB88E087BBC09A94BB85B3BD
:10010000806F85BB85B38C7F85BB82EB81BB0895F7
:1001100080916A0110BC80916A0189B980E98AB92D
:100120008EE880BD85B3837F85BB08958CE683BF51
:1001300081EA8FBD8CE08EBD8EE685BD08950F935C
:100140001F93CF93DF9359B35095E0E0F0E064E064
:1001500070E0A1E0B0E0C7E0D0E0CD01062E02C023
:10016000880F991F0A94E2F7462F440F4750252F16
:10017000282330E0042E02C0359527950A94E2F733
:10018000CE01861B970B8D0102C0000F111F8A95AF
:10019000E2F7C801852390E002C0880F991F4A95B5
:1001A000E2F730E090E0282B392BE22BF32B6F5F46
:1001B0007F4F6830710589F686B38095382F31708E
:1001C00020E02E2B3F2BC901DF91CF911F910F9182
:1001D00008951F939C0164E670E00E946D02E62F73
:1001E000F0E08CE99FEFAC01E49FC001E59F900D2A
:1001F000F49F900D1124820F931F6AE070E00E941B
:100200006D02162FC9016AE070E00E946D02382F5E
:1002100047E050E0E05AFE4FE08161E070E0CB0142
:10022000042E02C0880F991F0A94E2F78E2390E0F3
:10023000042E02C0959587950A94E2F7882311F061
:10024000A99A01C0A99800000000A89A0000000027
:10025000A898415050408FEF4F3F580701F747E0B3
:1002600050E0E12FF0E0E05AFE4F6081A1E0B0E005
:10027000CD01042E02C0880F991F0A94E2F786234D
:1002800090E0042E02C0959587950A94E2F78823A2
:1002900011F0A99A01C0A99800000000A89A0000D6
:1002A0000000A898415050408FEF4F3F580701F78A
:1002B00047E050E0E32FF0E0E05AFE4FE08161E0DC
:1002C00070E0CB01042E02C0880F991F0A94E2F758
:1002D0008E2390E0042E02C0959587950A94E2F74C
:1002E000982F882311F0A99A01C0A9980000000056
:1002F000A89A00000000A898415050408FEF4F3F4F
:100300005807F9F685B3990F9095982395BB00008F
:100310000000A89A00000000A8981F910895A998CD
:1003200080E0A89A00000000A898000000008F5FFD
:100330008631B9F7089580916C01833330F085B32D
:1003400090EF892785BB10926C0180916C018F5FC3
:1003500080936C010895FF920F931F93CF93DF93C7
:100360000E9478008CE683BF81EA8FBD8CE08EBD51
:100370008EE685BD80EA90E099BD88BD80E290E080
:100380009BBD8ABD13BC80EA8CBF0E9488000E947E
:100390009F0090936E0180936D0180916D0190910B
:1003A0006E010E94E90085B38F7085BB0E948F01AA
:1003B00081E090E090937403809373031092720134
:1003C00010927101789400EA10E0C0E2D0E050EAA7
:1003D000F52E29B386B390E081709070982F88270E
:1003E00030E0822B932B90937403809373032091BE
:1003F00073033091740380917101909172012817F9
:100400003907F1F0F89429B386B390E081709070C9
:10041000982F882730E0822B932B90937201809342
:1004200071010E949F0090936E0180936D010E9464
:100430008F0180916D0190916E010E94E900789486
:100440005C9B3BC01092700110926F01E0916D01B6
:10045000F0916E01ED58FE4FE081F0E0E05AFF4F61
:10046000808190E099BD88BDE0916D01F0916E01B1
:10047000EC58FE4FE081F0E0E05AFF4F808190E0C1
:100480009BBD8ABDE0916D01F0916E01EB58FE4F6E
:10049000E081F0E0E05AFF4F808183BDE0916D0183
:1004A000F0916E01EA58FE4FE081F0E0E05AFF4F14
:1004B00080818CBF8CB10E949B0180916D019091D5
:1004C0006E01892B41F4F89419BD08BDDBBDCABD8E
:1004D00013BCFCBE7ECF78947CCFAA1BBB1B51E122
:1004E00007C0AA1FBB1FA617B70710F0A61BB70BA4
:1004F000881F991F5A95A9F780959095BC01CD0149
:060500000895F894FFCFFE
:1005060000000000000001010101010101010101DB
:1005160001020202020202020202030303030303B0
:10052600030304040404040404050505050505067F
:100536000606060606070707070707080808080944
:10054600090909090A0A0A0A0B0B0B0B0C0C0C0CFD
:100556000D0D0D0D0E0E0E0F0F0F101010111111A7
:10056600121212131313141415151516161717173E
:10057600181819191A1A1B1B1C1C1D1D1E1E1F1FBD
:100586002021212222232424252626272828292A19
:100596002A2B2C2D2D2E2F30313132333435363750
:1005A6003839393A3B3C3D3E404142434445464753
:1005B600494A4B4C4D4F505153545557585A5B5D11
:1005C6005E606163646668696B6D6F70727476787D
:1005D6007A7C7E80828486888A8D8F919396989B7A
:1005E6009DA0A2A5A7AAADB0B2B5B8BBBEC1C4C7EF
:1005F600CACED1D4D7DBDEE2E5E9EDF0F4F8FCFFB4
:0C0606003F065B4F996D7D077F6F010080
:00000001FF
