:100000000C9454000C947C000C947C000C947C00A8
:100010000C947C000C947C000C947C000C947C0070
:100020000C947C000C9471030C947C000C947C0068
:100030000C947C000C947C000C947C000C947C0050
:100040000C9427030C947C000C94F5020C94CF02C2
:100050000C947C000C947C000C947C000C947C0030
:100060000C947C000C947C0000000000240027000D
:100070002A00010204081020408001020408102018
:1000800001020408102000000000250028002B00B9
:10009000040404040404040402020202020203032E
:1000A0000303030320041F0611241FBECFEFD8E073
:1000B000DEBFCDBF24E0A4EBB1E001C01D92AC36A1
:1000C000B207E1F711E0A0E0B1E0E2E5F1E102C042
:1000D00005900D92A43BB107D9F710E0C3E5D0E03D
:1000E00004C02197FE010E94A406C235D107C9F7BA
:1000F0000E9459040C949C080C940000AF92BF928B
:10010000CF92DF92EF92FF920F931F93CF93DF93E3
:100110006C017B018B01040F151FEB015E01AE1812
:10012000BF08C017D10759F06991D601ED91FC9134
:100130000190F081E02DC6010995892B79F7C50161
:10014000DF91CF911F910F91FF90EF90DF90CF90B3
:10015000BF90AF900895FC01538D448D252F30E062
:10016000842F90E0821B930B541710F0CF960895C4
:1001700001970895FC01918D828D981761F0A28DF1
:10018000AE0FBF2FB11D5D968C91928D9F5F9F73B7
:10019000928F90E008958FEF9FEF0895FC01918D6D
:1001A000828D981731F0828DE80FF11D858D90E0DA
:1001B00008958FEF9FEF0895FC01918D228D892F77
:1001C00090E0805C9F4F821B91098F73992708955F
:1001D00085EC93E00E94DC0021E0892B09F420E00B
:1001E000822F0895FC01A48DA80FB92FB11DA35A29
:1001F000BF4F2C91848D90E001968F739927848F47
:10020000A689B7892C93A089B1898C918370806469
:100210008C93938D848D981306C00288F389E02D0A
:1002200080818F7D80830895EF92FF920F931F93BB
:10023000CF93DF93EC0181E0888F9B8D8C8D981399
:100240001AC0E889F989808185FF15C09FB7F894A5
:10025000EE89FF896083E889F989808183708064F1
:1002600080839FBF81E090E0DF91CF911F910F913C
:10027000FF90EF900895F62E0B8D10E00F5F1F4F4B
:100280000F731127E02E8C8D8E110CC00FB607FC5A
:10029000FACFE889F989808185FFF5CFCE010E94E8
:1002A000F200F1CFEB8DEC0FFD2FF11DE35AFF4F64
:1002B000F0829FB7F8940B8FEA89FB898081806276
:1002C000CFCFCF93DF93EC01888D8823B9F0AA8933
:1002D000BB89E889F9898C9185FD03C0808186FD01
:1002E0000DC00FB607FCF7CF8C9185FFF2CF808150
:1002F00085FFEDCFCE010E94F200E9CFDF91CF91D3
:100300000895CF93DF931F92CDB7DEB789832091F5
:10031000BF013981E091C001F091C101822F90E0CD
:1003200080959095F8940080082200824BE000C0F0
:100330005DE000005A95E9F700800822089437959F
:1003400008F4022A00824A9599F778940F90DF9179
:10035000CF910895FC0101900020E9F73197AF019A
:10036000481B590BBC0185EC93E00C947E008F92E6
:100370009F92AF92BF920F931F93CF93DF93CDB70E
:10038000DEB7A1970FB6F894DEBF0FBECDBF19A29E
:10039000423008F44AE08E010F5D1F4F842E912CED
:1003A000B12CA12CA50194010E948206E62FB9016F
:1003B000CA01EA30F4F4E05DD801EE938D01232BFD
:1003C000242B252B79F790E080E0109719F0CD01D0
:1003D0000E94AA01A1960FB6F894DEBF0FBECDBF52
:1003E000DF91CF911F910F91BF90AF909F908F9011
:1003F0000895E95CE1CFCF92DF92EF92FF92CF9325
:10040000DF936B017C016DE285EC93E00E941401A7
:10041000EC0166277727CB016C197D098E099F09AE
:100420004AE00E94B7018C0F9D1FDF91CF91FF9092
:10043000EF90DF90CF900895CF93DF93BC01990F99
:10044000880B990B97FF0CC00E94FB01EC018BE11C
:1004500091E00E94AA018C0F9D1FDF91CF9108951A
:100460004AE00E94B701F2CF0F931F93CF93DF931F
:10047000EC0188819981009759F02A813B812617E8
:10048000370730F081E0DF91CF911F910F910895F0
:100490008B016F5F7F4F0E94CF07009759F09983C0
:1004A00088831B830A832C813D81232B59F7FC0110
:1004B0001082E8CF80E0E7CF0F931F93CF93DF93B5
:1004C000EC018B010E94340228813981811112C014
:1004D0002115310519F0C9010E94460719821882B9
:1004E0001D821C821B821A82CE01DF91CF911F9147
:1004F0000F9108951D830C836DE171E0C9010E9485
:100500009508F2CFEF92FF920F931F93CF93DF9353
:1005100000D0CDB7DEB7EE24E39485EC93E00E94E3
:10052000DC00892B69F185EC93E00E94BA00F82E7B
:1005300089831A8200916604109167040F5F1F4F30
:10054000B80182E694E00E943402882399F0209159
:100550006204309163048091660490916704BE0147
:100560006F5F7F4F820F931F0E949508109367045F
:10057000009366048AE0F812D0CFE092C403CDCF96
:100580000F900F90DF91CF911F910F91FF90EF90FF
:1005900008950E94E80081110C94820208951F9230
:1005A0000F920FB60F9211242F933F934F935F93A7
:1005B0006F937F938F939F93AF93BF93EF93FF932B
:1005C00085EC93E00E94F200FF91EF91BF91AF9113
:1005D0009F918F917F916F915F914F913F912F915B
:1005E0000F900FBE0F901F9018951F920F920FB68D
:1005F0000F9211242F938F939F93EF93FF93E0918A
:10060000D503F091D6038081E091DB03F091DC0308
:1006100082FD1BC090818091DE038F5F8F732091DC
:10062000DF03821741F0E091DE03F0E0EB53FC4F73
:10063000958F8093DE03FF91EF919F918F912F9182
:100640000F900FBE0F901F9018958081F4CF1F92CE
:100650000F920FB60F9211242F933F938F939F9376
:10066000AF93BF938091BB019091BC01A091BD015C
:10067000B091BE013091BA0123E0230F2D3758F518
:100680000196A11DB11D2093BA018093BB019093E7
:10069000BC01A093BD01B093BE018091B6019091C1
:1006A000B701A091B801B091B9010196A11DB11D8A
:1006B0008093B6019093B701A093B801B093B901AC
:1006C000BF91AF919F918F913F912F910F900FBE4E
:1006D0000F901F90189526E8230F0296A11DB11DBB
:1006E000D2CF78941F920F920FB60F921124CF920F
:1006F000DF92EF92FF920F931F932F933F934F93AD
:100700005F936F937F938F939F93AF93BF93CF9399
:10071000DF93EF93FF93809170008E7F8093700042
:100720000FE710E08BE1E82EF12C9BE2C92ED12CD3
:10073000C091B401D091B501209709F071C0033286
:10074000110508F477C003521109E091C001F0913E
:10075000C10120818091BF01982F909592239083B1
:100760009BE0D7011197F1F79150D9F79081892B30
:100770008083C6010197F1F780E00E9481012196F4
:10078000D093B501C093B401809101019091020111
:100790008C179D0768F61092B5011092B401E09194
:1007A000C001F091C10120818091BF01982F9095E7
:1007B000922390839BE02BE130E0D9011197F1F770
:1007C0009150D9F79081892B80838BE290E001973B
:1007D000F1F780E00E948101809170008E7F80930C
:1007E00070001092C2011092020110920101FF915B
:1007F000EF91DF91CF91BF91AF919F918F917F91B9
:100800006F915F914F913F912F911F910F91FF90A9
:10081000EF90DF90CF900F900FBE0F901F90189524
:100820000B30110538F00B501109FE01EE53FE4F4D
:100830008081A3CF80917000816080937000D7CFBA
:10084000E5ECF3E01382128288EE93E0A0E0B0E0E2
:1008500084839583A683B7838DE091E09183808321
:1008600085EC90E09587848784EC90E09787868775
:1008700080EC90E0918B808B81EC90E0938B828B6D
:1008800082EC90E0958B848B86EC90E0978B868B46
:10089000118E128E138E148EE2E6F4E01182108215
:1008A000138212821582148270E060E0CF010C94F2
:1008B0005C02CF93DF93CDB7DEB728970FB6F894DD
:1008C000DEBF0FBECDBF789484B5826084BD84B591
:1008D000816084BD85B5826085BD85B5816085BD3B
:1008E00080916E00816080936E00109281008091F3
:1008F000810082608093810080918100816080937B
:100900008100809180008160809380008091B1009F
:1009100084608093B1008091B00081608093B000CA
:1009200080917A00846080937A0080917A0082605E
:1009300080937A0080917A00816080937A00809120
:100940007A00806880937A001092C100E091D5030C
:10095000F091D60382E08083E091D103F091D2033D
:100960001082E091D303F091D4038FEC8083109236
:10097000DD03E091D903F091DA0386E08083E09112
:10098000D703F091D803808180618083E091D70301
:10099000F091D803808188608083E091D703F09143
:1009A000D803808180688083E091D703F091D803D9
:1009B00080818F7D808368E572E082E694E00E940A
:1009C00034028091C201882359F0809170008E7F9B
:1009D000809370001092C2011092020110920101E6
:1009E00083E0809300018EE191E00E94AA018BE1F7
:1009F00091E00E94AA0111E09090C403992009F4AB
:100A000006C11092C4031A8219821C821B821E82A4
:100A10001D8270E060E0CE0101960E945C02809130
:100A2000660490916704892B31F080916204909163
:100A30006304892B11F41092C303D12CC12CEE2432
:100A4000E394F12CE0916204F0916304DF010D90D6
:100A50000020E9F71197AE1BBF0BCA16DB0608F0A2
:100A6000ECC08091660490916704C816D90610F412
:100A7000309741F51092C303E3ECF3E0008180ED81
:100A8000800F8A3010F50F831886AD80BE802FEF5F
:100A9000A21AB20AB501CE0101960E94340288233F
:100AA00069F029813A818D819E81BE01695F7F4F06
:100AB000820F931F0E949508BE82AD822FEFC21A4B
:100AC000D20AC0CFEC0DFD1DD9CF0C3219F00A307F
:100AD00009F0A5C069807A80C3010E9425065C01E7
:100AE0008FEFA816B10409F0D0F58D819E81892B76
:100AF000B1F1F3018081882391F1C701019781153C
:100B0000F2E09F0780F420910101309102012E153F
:100B10003F0508F4970130930201209301018D53A2
:100B20009E4FFC01A08289E291E00E94AA01B501DA
:100B3000BB0C880B990B4AE00E94B70182E491E05C
:100B40000E94AA01C7010E941C0270E060E0CE0171
:100B500001960E945C02FFEFEF1AFF0AAFCF8EE40E
:100B600091E00E94AA01C5010E941C0270E060E0B1
:100B700082E694E00E945C02911041C01093C20191
:100B80002091000130E0C90180579F4FFC01449142
:100B9000E42FF0E0EE0FFF1FEA57FF4F459154910D
:100BA0005093C1014093C001F901EE58FF4F2491C9
:100BB0002093BF012491FC018491882399F090E057
:100BC000880F991FFC01E859FF4FA591B491FC01D2
:100BD000EA57FF4F859194918FB7F894EC91E22BEF
:100BE000EC938FBF809170008160809370008EE9DC
:100BF00091E00E94AA018BE191E00E94AA018BE1A1
:100C000091E00E94AA0189819A810E9446070E9470
:100C1000E800882309F4F0CE0E948202EDCE84E73A
:100C200091E00E94AA01602F85EC93E00E941401DC
:100C30008BE191E00E94AA0199CF912C97CF8091EE
:100C40006204909163040C944607FC01882799275D
:100C5000E89421912032E9F3293010F02E30C8F3C6
:100C60002B3241F02D3239F4689404C00E944306BF
:100C7000820F911D219120532A30C0F31EF49095CC
:100C800081959F4F08957AE0979F902D879F802DA3
:100C9000910D112408952F923F924F925F926F927F
:100CA0007F928F929F92AF92BF92CF92DF92EF92FC
:100CB000FF920F931F93CF93DF93CDB7DEB7CA1B7D
:100CC000DB0B0FB6F894DEBF0FBECDBF09942A88A8
:100CD000398848885F846E847D848C849B84AA8450
:100CE000B984C884DF80EE80FD800C811B81AA81DD
:100CF000B981CE0FD11D0FB6F894DEBF0FBECDBFA8
:100D0000ED010895A1E21A2EAA1BBB1BFD010DC027
:100D1000AA1FBB1FEE1FFF1FA217B307E407F507AB
:100D200020F0A21BB30BE40BF50B661F771F881F87
:100D3000991F1A9469F760957095809590959B011D
:100D4000AC01BD01CF010895EE0FFF1F0590F49196
:100D5000E02D09940F931F93CF93DF938230910579
:100D600010F482E090E0E0916A04F0916B0430E0CE
:100D700020E0B0E0A0E0309799F42115310509F4A6
:100D80004AC0281B390B24303105D8F58A819B8154
:100D90006115710589F1FB0193838283FE0111C006
:100DA000408151810281138148175907E0F04817AB
:100DB000590799F4109761F012960C9312971396B5
:100DC0001C933296CF01DF91CF911F910F9108951F
:100DD00000936A0410936B04F4CF2115310551F090
:100DE0004217530738F0A901DB019A01BD01DF0169
:100DF000F801C1CFEF01F9CF90936B0480936A049F
:100E0000CDCFFE01E20FF31F819391932250310960
:100E100039832883D7CF2091680430916904232B2C
:100E200041F420910501309106013093690420932B
:100E3000680420910301309104012115310541F42A
:100E40002DB73EB74091070150910801241B350B87
:100E5000E0916804F0916904E217F307A0F42E1BF7
:100E60003F0B2817390778F0AC014E5F5F4F24170E
:100E7000350748F04E0F5F1F509369044093680494
:100E8000819391939FCFF0E0E0E09CCFCF93DF93ED
:100E90000097E9F0FC01329713821282A0916A0454
:100EA000B0916B04ED0130E020E01097A1F42081B7
:100EB0003181820F931F20916804309169042817B3
:100EC000390709F061C0F0936904E0936804DF9189
:100ED000CF910895EA01CE17DF07E8F54A815B81DB
:100EE0009E0141155105B1F7E901FB83EA83499160
:100EF0005991C40FD51FEC17FD0761F480819181D2
:100F00000296840F951FE9019983888382819381DA
:100F10009B838A83F0E0E0E012968D919C91139779
:100F20000097B9F52D913C911197CD010296820F52
:100F3000931F20916804309169042817390739F606
:100F4000309751F510926B0410926A04B0936904C3
:100F5000A0936804BCCFD383C28340815181840FA6
:100F6000951FC817D90761F44E5F5F4F888199813B
:100F7000480F591F518340838A819B8193838283C9
:100F80002115310509F0B0CFF0936B04E0936A04AA
:100F90009ECFFD01DC01C0CF13821282D7CFB0E01B
:100FA000A0E0E5EDF7E00C944D068C01009751F4BC
:100FB000CB010E94AA068C01C801CDB7DEB7E0E1E3
:100FC0000C946906FC01E60FF71F9C0122503109C1
:100FD000E217F30708F49DC0D901CD91DC91119778
:100FE000C617D70798F0C530D10530F3CE01049766
:100FF0008617970708F3C61BD70B2297C193D19387
:101000006D937C93CF010E944607D6CF5B01AC1A4B
:10101000BD0A4C018C0E9D1EA0916A04B0916B0418
:10102000512C412CF12CE12C109731F58091680462
:10103000909169048815990509F05CC04616570619
:1010400008F058C08091030190910401009741F489
:101050008DB79EB74091070150910801841B950BF5
:10106000E817F90708F055C0F0936904E0936804A5
:10107000F90171836083A0CF8D919C911197129695
:101080006C90129713967C901397A815B90559F593
:101090006C0142E0C40ED11CCA14DB0420F1AC0187
:1010A0004A195B09DA011296159780F06282738201
:1010B00051834083D9016D937C93E114F10471F065
:1010C000D7011396FC93EE93129776CF22968C0F4E
:1010D0009D1FF90191838083F301EFCFF0936B049F
:1010E000E0936A0469CF4816590608F42C017D0183
:1010F000D3019ACFCB010E94AA067C01009749F048
:10110000AE01B8010E948C08C8010E944607870101
:1011100053CF10E000E050CFFB01DC0102C0019092
:101120000D9241505040D8F70895FB01DC01019029
:101130000D920020E1F7089510E0C3E5D0E004C06F
:10114000FE010E94A4062196C435D107C9F7F89480
:02115000FFCFCF
:1011520003100000006C0480000000000014017EF7
:1011620000AB006101DC00BA00CE000D0A0047723C
:10117200656574696E6773210077726F7465207498
:101182006F206F75747075742E2076616C75653A78
:1011920020002C20616464726573733A2000636FCF
:1011A200756C64206E6F7420706172736520646167
:1011B20074612C20696E76616C69642076616C754D
:1011C200653A2000636F756C64206E6F74207061E5
:1011D20072736520646174612C20696E76616C693A
:1011E20064206368617261637465723A200073659A
:1011F2006E74206461746120746F206F75747075F1
:041202007421000053
:107E0000112484B714BE81FFF0D085E080938100F7
:107E100082E08093C00088E18093C10086E0809377
:107E2000C20080E18093C4008EE0C9D0259A86E02C
:107E300020E33CEF91E0309385002093840096BBD3
:107E4000B09BFECF1D9AA8958150A9F7CC24DD24C4
:107E500088248394B5E0AB2EA1E19A2EF3E0BF2EE7
:107E6000A2D0813461F49FD0082FAFD0023811F036
:107E7000013811F484E001C083E08DD089C08234E0
:107E800011F484E103C0853419F485E0A6D080C0E4
:107E9000853579F488D0E82EFF2485D0082F10E0AE
:107EA000102F00270E291F29000F111F8ED06801E7
:107EB0006FC0863521F484E090D080E0DECF843638
:107EC00009F040C070D06FD0082F6DD080E0C81688
:107ED00080E7D80618F4F601B7BEE895C0E0D1E017
:107EE00062D089930C17E1F7F0E0CF16F0E7DF06D8
:107EF00018F0F601B7BEE89568D007B600FCFDCFD4
:107F0000A601A0E0B1E02C9130E011968C91119780
:107F100090E0982F8827822B932B1296FA010C0160
:107F200087BEE89511244E5F5F4FF1E0A038BF0790
:107F300051F7F601A7BEE89507B600FCFDCF97BE46
:107F4000E89526C08437B1F42ED02DD0F82E2BD052
:107F50003CD0F601EF2C8F010F5F1F4F84911BD097
:107F6000EA94F801C1F70894C11CD11CFA94CF0C13
:107F7000D11C0EC0853739F428D08EE10CD085E9AC
:107F80000AD08FE07ACF813511F488E018D01DD067
:107F900080E101D065CF982F8091C00085FFFCCF94
:107FA0009093C60008958091C00087FFFCCF809118
:107FB000C00084FD01C0A8958091C6000895E0E648
:107FC000F0E098E1908380830895EDDF803219F02E
:107FD00088E0F5DFFFCF84E1DECF1F93182FE3DFCA
:107FE0001150E9F7F2DF1F91089580E0E8DFEE27F6
:047FF000FF270994CA
:027FFE00040479
:0400000300007E007B
:00000001FF
